{
  "contractName": "Kyc",
  "abi": [
    {
      "inputs": [],
      "stateMutability": "nonpayable",
      "type": "constructor"
    },
    {
      "inputs": [],
      "name": "admin",
      "outputs": [
        {
          "internalType": "address",
          "name": "",
          "type": "address"
        }
      ],
      "stateMutability": "view",
      "type": "function",
      "constant": true
    },
    {
      "inputs": [
        {
          "internalType": "string",
          "name": "",
          "type": "string"
        }
      ],
      "name": "kycRequestList",
      "outputs": [
        {
          "internalType": "string",
          "name": "customername",
          "type": "string"
        },
        {
          "internalType": "string",
          "name": "customerdata",
          "type": "string"
        },
        {
          "internalType": "address",
          "name": "kycRequestedBank",
          "type": "address"
        }
      ],
      "stateMutability": "view",
      "type": "function",
      "constant": true
    },
    {
      "inputs": [
        {
          "internalType": "string",
          "name": "_customerName",
          "type": "string"
        },
        {
          "internalType": "string",
          "name": "_customerData",
          "type": "string"
        }
      ],
      "name": "addKYCRequest",
      "outputs": [],
      "stateMutability": "nonpayable",
      "type": "function"
    },
    {
      "inputs": [
        {
          "internalType": "string",
          "name": "_customerName",
          "type": "string"
        },
        {
          "internalType": "string",
          "name": "_customerData",
          "type": "string"
        }
      ],
      "name": "addCustomer",
      "outputs": [],
      "stateMutability": "nonpayable",
      "type": "function"
    },
    {
      "inputs": [
        {
          "internalType": "string",
          "name": "_customerName",
          "type": "string"
        }
      ],
      "name": "removeKYCRequest",
      "outputs": [],
      "stateMutability": "nonpayable",
      "type": "function"
    },
    {
      "inputs": [
        {
          "internalType": "string",
          "name": "_name",
          "type": "string"
        }
      ],
      "name": "viewCustomer",
      "outputs": [
        {
          "components": [
            {
              "internalType": "string",
              "name": "name",
              "type": "string"
            },
            {
              "internalType": "string",
              "name": "data",
              "type": "string"
            },
            {
              "internalType": "bool",
              "name": "kycStatus",
              "type": "bool"
            },
            {
              "internalType": "uint256",
              "name": "upVotes",
              "type": "uint256"
            },
            {
              "internalType": "uint256",
              "name": "downVotes",
              "type": "uint256"
            },
            {
              "internalType": "address",
              "name": "kycValidatedBank",
              "type": "address"
            }
          ],
          "internalType": "struct Kyc.Customer",
          "name": "",
          "type": "tuple"
        }
      ],
      "stateMutability": "view",
      "type": "function",
      "constant": true
    },
    {
      "inputs": [
        {
          "internalType": "string",
          "name": "_customerName",
          "type": "string"
        }
      ],
      "name": "upVoteCustomer",
      "outputs": [],
      "stateMutability": "nonpayable",
      "type": "function"
    },
    {
      "inputs": [
        {
          "internalType": "string",
          "name": "_customerName",
          "type": "string"
        }
      ],
      "name": "downVoteCustomer",
      "outputs": [],
      "stateMutability": "nonpayable",
      "type": "function"
    },
    {
      "inputs": [
        {
          "internalType": "string",
          "name": "_customerName",
          "type": "string"
        }
      ],
      "name": "modifyCustomerDetail",
      "outputs": [],
      "stateMutability": "nonpayable",
      "type": "function"
    },
    {
      "inputs": [
        {
          "internalType": "address",
          "name": "_bank",
          "type": "address"
        }
      ],
      "name": "getBankComplaint",
      "outputs": [
        {
          "internalType": "uint256",
          "name": "",
          "type": "uint256"
        }
      ],
      "stateMutability": "view",
      "type": "function",
      "constant": true
    },
    {
      "inputs": [
        {
          "internalType": "address",
          "name": "_bank",
          "type": "address"
        }
      ],
      "name": "viewBankDetails",
      "outputs": [
        {
          "components": [
            {
              "internalType": "string",
              "name": "name",
              "type": "string"
            },
            {
              "internalType": "address",
              "name": "ethAddress",
              "type": "address"
            },
            {
              "internalType": "uint256",
              "name": "complaintReported",
              "type": "uint256"
            },
            {
              "internalType": "uint256",
              "name": "kycCount",
              "type": "uint256"
            },
            {
              "internalType": "bool",
              "name": "isAllowedToVote",
              "type": "bool"
            },
            {
              "internalType": "string",
              "name": "regNumber",
              "type": "string"
            }
          ],
          "internalType": "struct Kyc.Bank",
          "name": "",
          "type": "tuple"
        }
      ],
      "stateMutability": "view",
      "type": "function",
      "constant": true
    },
    {
      "inputs": [
        {
          "internalType": "address",
          "name": "_bank",
          "type": "address"
        }
      ],
      "name": "reportBank",
      "outputs": [],
      "stateMutability": "nonpayable",
      "type": "function"
    },
    {
      "inputs": [
        {
          "internalType": "string",
          "name": "_bankName",
          "type": "string"
        },
        {
          "internalType": "address",
          "name": "_bankAddress",
          "type": "address"
        },
        {
          "internalType": "string",
          "name": "_bankRegistration",
          "type": "string"
        }
      ],
      "name": "addBank",
      "outputs": [],
      "stateMutability": "nonpayable",
      "type": "function"
    },
    {
      "inputs": [
        {
          "internalType": "address",
          "name": "_bankAddress",
          "type": "address"
        },
        {
          "internalType": "bool",
          "name": "_isAllowedToVote",
          "type": "bool"
        }
      ],
      "name": "modifyBank",
      "outputs": [],
      "stateMutability": "nonpayable",
      "type": "function"
    },
    {
      "inputs": [
        {
          "internalType": "address",
          "name": "_bankAddress",
          "type": "address"
        }
      ],
      "name": "removerBank",
      "outputs": [],
      "stateMutability": "nonpayable",
      "type": "function"
    }
  ],
  "bytecode": "0x60806040523480156200001157600080fd5b5033600460006101000a81548173ffffffffffffffffffffffffffffffffffffffff021916908373ffffffffffffffffffffffffffffffffffffffff160217905550600060038190555060006040518060c001604052806040518060400160405280600581526020017f41646d696e0000000000000000000000000000000000000000000000000000008152508152602001600460009054906101000a900473ffffffffffffffffffffffffffffffffffffffff1673ffffffffffffffffffffffffffffffffffffffff16815260200160008152602001600081526020016001151581526020016040518060400160405280600181526020017f300000000000000000000000000000000000000000000000000000000000000081525081525090508060026000600460009054906101000a900473ffffffffffffffffffffffffffffffffffffffff1673ffffffffffffffffffffffffffffffffffffffff1673ffffffffffffffffffffffffffffffffffffffff1681526020019081526020016000206000820151816000019080519060200190620001b392919062000258565b5060208201518160010160006101000a81548173ffffffffffffffffffffffffffffffffffffffff021916908373ffffffffffffffffffffffffffffffffffffffff160217905550604082015181600201556060820151816003015560808201518160040160006101000a81548160ff02191690831515021790555060a08201518160050190805190602001906200024d92919062000258565b50905050506200036c565b828054620002669062000337565b90600052602060002090601f0160209004810192826200028a5760008555620002d6565b82601f10620002a557805160ff1916838001178555620002d6565b82800160010185558215620002d6579182015b82811115620002d5578251825591602001919060010190620002b8565b5b509050620002e59190620002e9565b5090565b5b8082111562000304576000816000905550600101620002ea565b5090565b7f4e487b7100000000000000000000000000000000000000000000000000000000600052602260045260246000fd5b600060028204905060018216806200035057607f821691505b60208210810362000366576200036562000308565b5b50919050565b6134ed806200037c6000396000f3fe608060405234801561001057600080fd5b50600436106100f55760003560e01c806382e0438a11610097578063bd561e1411610066578063bd561e1414610280578063ccfa8e711461029c578063e25977fd146102b8578063f851a440146102d4576100f5565b806382e0438a146101e857806388cc8d8d14610204578063a5a4980014610234578063b55d4e5514610250576100f5565b80633190abc0116100d35780633190abc0146101625780633adb00651461017e578063569e64bc146101b05780637f27ada7146101cc576100f5565b8063107925bb146100fa5780631e8eba6e1461012a5780632ad45fe714610146575b600080fd5b610114600480360381019061010f9190612860565b6102f2565b6040516101219190612a36565b60405180910390f35b610144600480360381019061013f9190612860565b610618565b005b610160600480360381019061015b9190612ab0565b610808565b005b61017c60048036038101906101779190612af0565b6109cb565b005b61019860048036038101906101939190612860565b610cec565b6040516101a793929190612bc1565b60405180910390f35b6101ca60048036038101906101c59190612860565b610e5c565b005b6101e660048036038101906101e19190612860565b6111a1565b005b61020260048036038101906101fd9190612860565b61139f565b005b61021e60048036038101906102199190612c06565b6116e4565b60405161022b9190612cc3565b60405180910390f35b61024e60048036038101906102499190612c06565b6119b9565b005b61026a60048036038101906102659190612c06565b611af2565b6040516102779190612cf4565b60405180910390f35b61029a60048036038101906102959190612af0565b611c11565b005b6102b660048036038101906102b19190612d0f565b611e73565b005b6102d260048036038101906102cd9190612c06565b612137565b005b6102dc61234c565b6040516102e99190612d9a565b60405180910390f35b6102fa612587565b81600060018260405161030d9190612df1565b9081526020016040518091039020600001805461032990612e37565b90501161036b576040517f08c379a000000000000000000000000000000000000000000000000000000000815260040161036290612eda565b60405180910390fd5b33600073ffffffffffffffffffffffffffffffffffffffff16600260008373ffffffffffffffffffffffffffffffffffffffff1673ffffffffffffffffffffffffffffffffffffffff16815260200190815260200160002060010160009054906101000a900473ffffffffffffffffffffffffffffffffffffffff1673ffffffffffffffffffffffffffffffffffffffff160361043d576040517f08c379a000000000000000000000000000000000000000000000000000000000815260040161043490612f6c565b60405180910390fd5b60018460405161044d9190612df1565b90815260200160405180910390206040518060c001604052908160008201805461047690612e37565b80601f01602080910402602001604051908101604052809291908181526020018280546104a290612e37565b80156104ef5780601f106104c4576101008083540402835291602001916104ef565b820191906000526020600020905b8154815290600101906020018083116104d257829003601f168201915b5050505050815260200160018201805461050890612e37565b80601f016020809104026020016040519081016040528092919081815260200182805461053490612e37565b80156105815780601f1061055657610100808354040283529160200191610581565b820191906000526020600020905b81548152906001019060200180831161056457829003601f168201915b505050505081526020016002820160009054906101000a900460ff1615151515815260200160038201548152602001600482015481526020016005820160009054906101000a900473ffffffffffffffffffffffffffffffffffffffff1673ffffffffffffffffffffffffffffffffffffffff1673ffffffffffffffffffffffffffffffffffffffff168152505092505050919050565b80600073ffffffffffffffffffffffffffffffffffffffff166000826040516106419190612df1565b908152602001604051809103902060020160009054906101000a900473ffffffffffffffffffffffffffffffffffffffff1673ffffffffffffffffffffffffffffffffffffffff16036106c9576040517f08c379a00000000000000000000000000000000000000000000000000000000081526004016106c090612ffe565b60405180910390fd5b33600073ffffffffffffffffffffffffffffffffffffffff16600260008373ffffffffffffffffffffffffffffffffffffffff1673ffffffffffffffffffffffffffffffffffffffff16815260200190815260200160002060010160009054906101000a900473ffffffffffffffffffffffffffffffffffffffff1673ffffffffffffffffffffffffffffffffffffffff160361079b576040517f08c379a000000000000000000000000000000000000000000000000000000000815260040161079290612f6c565b60405180910390fd5b6000836040516107ab9190612df1565b9081526020016040518091039020600080820160006107ca91906125d5565b6001820160006107da91906125d5565b6002820160006101000a81549073ffffffffffffffffffffffffffffffffffffffff02191690555050505050565b33600460009054906101000a900473ffffffffffffffffffffffffffffffffffffffff1673ffffffffffffffffffffffffffffffffffffffff168173ffffffffffffffffffffffffffffffffffffffff1614610899576040517f08c379a000000000000000000000000000000000000000000000000000000000815260040161089090613090565b60405180910390fd5b82600073ffffffffffffffffffffffffffffffffffffffff16600260008373ffffffffffffffffffffffffffffffffffffffff1673ffffffffffffffffffffffffffffffffffffffff16815260200190815260200160002060010160009054906101000a900473ffffffffffffffffffffffffffffffffffffffff1673ffffffffffffffffffffffffffffffffffffffff161461096b576040517f08c379a000000000000000000000000000000000000000000000000000000000815260040161096290613122565b60405180910390fd5b82600260008673ffffffffffffffffffffffffffffffffffffffff1673ffffffffffffffffffffffffffffffffffffffff16815260200190815260200160002060040160006101000a81548160ff02191690831515021790555050505050565b81600073ffffffffffffffffffffffffffffffffffffffff166001826040516109f49190612df1565b908152602001604051809103902060050160009054906101000a900473ffffffffffffffffffffffffffffffffffffffff1673ffffffffffffffffffffffffffffffffffffffff1614610a7c576040517f08c379a0000000000000000000000000000000000000000000000000000000008152600401610a73906131da565b60405180910390fd5b33600073ffffffffffffffffffffffffffffffffffffffff16600260008373ffffffffffffffffffffffffffffffffffffffff1673ffffffffffffffffffffffffffffffffffffffff16815260200190815260200160002060010160009054906101000a900473ffffffffffffffffffffffffffffffffffffffff1673ffffffffffffffffffffffffffffffffffffffff1603610b4e576040517f08c379a0000000000000000000000000000000000000000000000000000000008152600401610b4590612f6c565b60405180910390fd5b60006040518060c0016040528086815260200185815260200160011515815260200160008152602001600081526020013373ffffffffffffffffffffffffffffffffffffffff1681525090506000600586604051610bac9190612df1565b908152602001604051809103902060003373ffffffffffffffffffffffffffffffffffffffff1673ffffffffffffffffffffffffffffffffffffffff16815260200190815260200160002060006101000a81548160ff02191690831515021790555080600186604051610c1f9190612df1565b90815260200160405180910390206000820151816000019080519060200190610c49929190612615565b506020820151816001019080519060200190610c66929190612615565b5060408201518160020160006101000a81548160ff021916908315150217905550606082015181600301556080820151816004015560a08201518160050160006101000a81548173ffffffffffffffffffffffffffffffffffffffff021916908373ffffffffffffffffffffffffffffffffffffffff1602179055509050505050505050565b600081805160208101820180518482526020830160208501208183528095505050505050600091509050806000018054610d2590612e37565b80601f0160208091040260200160405190810160405280929190818152602001828054610d5190612e37565b8015610d9e5780601f10610d7357610100808354040283529160200191610d9e565b820191906000526020600020905b815481529060010190602001808311610d8157829003601f168201915b505050505090806001018054610db390612e37565b80601f0160208091040260200160405190810160405280929190818152602001828054610ddf90612e37565b8015610e2c5780601f10610e0157610100808354040283529160200191610e2c565b820191906000526020600020905b815481529060010190602001808311610e0f57829003601f168201915b5050505050908060020160009054906101000a900473ffffffffffffffffffffffffffffffffffffffff16905083565b806000600182604051610e6f9190612df1565b90815260200160405180910390206000018054610e8b90612e37565b905011610ecd576040517f08c379a0000000000000000000000000000000000000000000000000000000008152600401610ec490612eda565b60405180910390fd5b33600073ffffffffffffffffffffffffffffffffffffffff16600260008373ffffffffffffffffffffffffffffffffffffffff1673ffffffffffffffffffffffffffffffffffffffff16815260200190815260200160002060010160009054906101000a900473ffffffffffffffffffffffffffffffffffffffff1673ffffffffffffffffffffffffffffffffffffffff1603610f9f576040517f08c379a0000000000000000000000000000000000000000000000000000000008152600401610f9690612f6c565b60405180910390fd5b338360001515600582604051610fb59190612df1565b908152602001604051809103902060008473ffffffffffffffffffffffffffffffffffffffff1673ffffffffffffffffffffffffffffffffffffffff16815260200190815260200160002060009054906101000a900460ff16151514611050576040517f08c379a00000000000000000000000000000000000000000000000000000000081526004016110479061326c565b60405180910390fd5b60011515600260008473ffffffffffffffffffffffffffffffffffffffff1673ffffffffffffffffffffffffffffffffffffffff16815260200190815260200160002060040160009054906101000a900460ff161515146110e6576040517f08c379a00000000000000000000000000000000000000000000000000000000081526004016110dd906132d8565b60405180910390fd5b6001856040516110f69190612df1565b9081526020016040518091039020600301600081548092919061111890613327565b919050555061112685612372565b60016005866040516111389190612df1565b908152602001604051809103902060003373ffffffffffffffffffffffffffffffffffffffff1673ffffffffffffffffffffffffffffffffffffffff16815260200190815260200160002060006101000a81548160ff0219169083151502179055505050505050565b33600073ffffffffffffffffffffffffffffffffffffffff16600260008373ffffffffffffffffffffffffffffffffffffffff1673ffffffffffffffffffffffffffffffffffffffff16815260200190815260200160002060010160009054906101000a900473ffffffffffffffffffffffffffffffffffffffff1673ffffffffffffffffffffffffffffffffffffffff1603611273576040517f08c379a000000000000000000000000000000000000000000000000000000000815260040161126a90612f6c565b60405180910390fd5b8160006001826040516112869190612df1565b908152602001604051809103902060000180546112a290612e37565b9050116112e4576040517f08c379a00000000000000000000000000000000000000000000000000000000081526004016112db90612eda565b60405180910390fd5b6000836040516112f49190612df1565b90815260200160405180910390206000808201600061131391906125d5565b60018201600061132391906125d5565b6002820160006101000a81549073ffffffffffffffffffffffffffffffffffffffff02191690555050600060018460405161135e9190612df1565b90815260200160405180910390206003018190555060006001846040516113859190612df1565b908152602001604051809103902060040181905550505050565b8060006001826040516113b29190612df1565b908152602001604051809103902060000180546113ce90612e37565b905011611410576040517f08c379a000000000000000000000000000000000000000000000000000000000815260040161140790612eda565b60405180910390fd5b33600073ffffffffffffffffffffffffffffffffffffffff16600260008373ffffffffffffffffffffffffffffffffffffffff1673ffffffffffffffffffffffffffffffffffffffff16815260200190815260200160002060010160009054906101000a900473ffffffffffffffffffffffffffffffffffffffff1673ffffffffffffffffffffffffffffffffffffffff16036114e2576040517f08c379a00000000000000000000000000000000000000000000000000000000081526004016114d990612f6c565b60405180910390fd5b3383600015156005826040516114f89190612df1565b908152602001604051809103902060008473ffffffffffffffffffffffffffffffffffffffff1673ffffffffffffffffffffffffffffffffffffffff16815260200190815260200160002060009054906101000a900460ff16151514611593576040517f08c379a000000000000000000000000000000000000000000000000000000000815260040161158a9061326c565b60405180910390fd5b60011515600260008473ffffffffffffffffffffffffffffffffffffffff1673ffffffffffffffffffffffffffffffffffffffff16815260200190815260200160002060040160009054906101000a900460ff16151514611629576040517f08c379a0000000000000000000000000000000000000000000000000000000008152600401611620906132d8565b60405180910390fd5b6001856040516116399190612df1565b9081526020016040518091039020600401600081548092919061165b90613327565b919050555061166985612372565b600160058660405161167b9190612df1565b908152602001604051809103902060003373ffffffffffffffffffffffffffffffffffffffff1673ffffffffffffffffffffffffffffffffffffffff16815260200190815260200160002060006101000a81548160ff0219169083151502179055505050505050565b6116ec61269b565b81600073ffffffffffffffffffffffffffffffffffffffff16600260008373ffffffffffffffffffffffffffffffffffffffff1673ffffffffffffffffffffffffffffffffffffffff16815260200190815260200160002060010160009054906101000a900473ffffffffffffffffffffffffffffffffffffffff1673ffffffffffffffffffffffffffffffffffffffff16036117be576040517f08c379a00000000000000000000000000000000000000000000000000000000081526004016117b590612f6c565b60405180910390fd5b600260008473ffffffffffffffffffffffffffffffffffffffff1673ffffffffffffffffffffffffffffffffffffffff1681526020019081526020016000206040518060c001604052908160008201805461181890612e37565b80601f016020809104026020016040519081016040528092919081815260200182805461184490612e37565b80156118915780601f1061186657610100808354040283529160200191611891565b820191906000526020600020905b81548152906001019060200180831161187457829003601f168201915b505050505081526020016001820160009054906101000a900473ffffffffffffffffffffffffffffffffffffffff1673ffffffffffffffffffffffffffffffffffffffff1673ffffffffffffffffffffffffffffffffffffffff16815260200160028201548152602001600382015481526020016004820160009054906101000a900460ff1615151515815260200160058201805461192f90612e37565b80601f016020809104026020016040519081016040528092919081815260200182805461195b90612e37565b80156119a85780601f1061197d576101008083540402835291602001916119a8565b820191906000526020600020905b81548152906001019060200180831161198b57829003601f168201915b505050505081525050915050919050565b80600073ffffffffffffffffffffffffffffffffffffffff16600260008373ffffffffffffffffffffffffffffffffffffffff1673ffffffffffffffffffffffffffffffffffffffff16815260200190815260200160002060010160009054906101000a900473ffffffffffffffffffffffffffffffffffffffff1673ffffffffffffffffffffffffffffffffffffffff1603611a8b576040517f08c379a0000000000000000000000000000000000000000000000000000000008152600401611a8290612f6c565b60405180910390fd5b6001600260008473ffffffffffffffffffffffffffffffffffffffff1673ffffffffffffffffffffffffffffffffffffffff1681526020019081526020016000206002016000828254611ade919061336f565b92505081905550611aee82612471565b5050565b600081600073ffffffffffffffffffffffffffffffffffffffff16600260008373ffffffffffffffffffffffffffffffffffffffff1673ffffffffffffffffffffffffffffffffffffffff16815260200190815260200160002060010160009054906101000a900473ffffffffffffffffffffffffffffffffffffffff1673ffffffffffffffffffffffffffffffffffffffff1603611bc6576040517f08c379a0000000000000000000000000000000000000000000000000000000008152600401611bbd90612f6c565b60405180910390fd5b600260008473ffffffffffffffffffffffffffffffffffffffff1673ffffffffffffffffffffffffffffffffffffffff16815260200190815260200160002060020154915050919050565b33600073ffffffffffffffffffffffffffffffffffffffff16600260008373ffffffffffffffffffffffffffffffffffffffff1673ffffffffffffffffffffffffffffffffffffffff16815260200190815260200160002060010160009054906101000a900473ffffffffffffffffffffffffffffffffffffffff1673ffffffffffffffffffffffffffffffffffffffff1603611ce3576040517f08c379a0000000000000000000000000000000000000000000000000000000008152600401611cda90612f6c565b60405180910390fd5b82600073ffffffffffffffffffffffffffffffffffffffff16600082604051611d0c9190612df1565b908152602001604051809103902060020160009054906101000a900473ffffffffffffffffffffffffffffffffffffffff1673ffffffffffffffffffffffffffffffffffffffff1614611d94576040517f08c379a0000000000000000000000000000000000000000000000000000000008152600401611d8b90613437565b60405180910390fd5b600060405180606001604052808681526020018581526020013373ffffffffffffffffffffffffffffffffffffffff16815250905080600086604051611dda9190612df1565b90815260200160405180910390206000820151816000019080519060200190611e04929190612615565b506020820151816001019080519060200190611e21929190612615565b5060408201518160020160006101000a81548173ffffffffffffffffffffffffffffffffffffffff021916908373ffffffffffffffffffffffffffffffffffffffff1602179055509050505050505050565b33600460009054906101000a900473ffffffffffffffffffffffffffffffffffffffff1673ffffffffffffffffffffffffffffffffffffffff168173ffffffffffffffffffffffffffffffffffffffff1614611f04576040517f08c379a0000000000000000000000000000000000000000000000000000000008152600401611efb90613090565b60405180910390fd5b82600073ffffffffffffffffffffffffffffffffffffffff16600260008373ffffffffffffffffffffffffffffffffffffffff1673ffffffffffffffffffffffffffffffffffffffff16815260200190815260200160002060010160009054906101000a900473ffffffffffffffffffffffffffffffffffffffff1673ffffffffffffffffffffffffffffffffffffffff1614611fd6576040517f08c379a0000000000000000000000000000000000000000000000000000000008152600401611fcd90613122565b60405180910390fd5b60006040518060c001604052808781526020018673ffffffffffffffffffffffffffffffffffffffff168152602001600081526020016000815260200160011515815260200185815250905080600260008773ffffffffffffffffffffffffffffffffffffffff1673ffffffffffffffffffffffffffffffffffffffff168152602001908152602001600020600082015181600001908051906020019061207e929190612615565b5060208201518160010160006101000a81548173ffffffffffffffffffffffffffffffffffffffff021916908373ffffffffffffffffffffffffffffffffffffffff160217905550604082015181600201556060820151816003015560808201518160040160006101000a81548160ff02191690831515021790555060a0820151816005019080519060200190612116929190612615565b509050506001600354612129919061336f565b600381905550505050505050565b33600460009054906101000a900473ffffffffffffffffffffffffffffffffffffffff1673ffffffffffffffffffffffffffffffffffffffff168173ffffffffffffffffffffffffffffffffffffffff16146121c8576040517f08c379a00000000000000000000000000000000000000000000000000000000081526004016121bf90613090565b60405180910390fd5b81600073ffffffffffffffffffffffffffffffffffffffff16600260008373ffffffffffffffffffffffffffffffffffffffff1673ffffffffffffffffffffffffffffffffffffffff16815260200190815260200160002060010160009054906101000a900473ffffffffffffffffffffffffffffffffffffffff1673ffffffffffffffffffffffffffffffffffffffff161461229a576040517f08c379a000000000000000000000000000000000000000000000000000000000815260040161229190613122565b60405180910390fd5b600260008473ffffffffffffffffffffffffffffffffffffffff1673ffffffffffffffffffffffffffffffffffffffff168152602001908152602001600020600080820160006122ea91906125d5565b6001820160006101000a81549073ffffffffffffffffffffffffffffffffffffffff0219169055600282016000905560038201600090556004820160006101000a81549060ff021916905560058201600061234591906125d5565b5050505050565b600460009054906101000a900473ffffffffffffffffffffffffffffffffffffffff1681565b6001816040516123829190612df1565b9081526020016040518091039020600401546001826040516123a49190612df1565b9081526020016040518091039020600301541180156123f05750600380546123cc9190613486565b6001826040516123dc9190612df1565b908152602001604051809103902060040154105b1561243357600180826040516124069190612df1565b908152602001604051809103902060020160006101000a81548160ff02191690831515021790555061246e565b60006001826040516124459190612df1565b908152602001604051809103902060020160006101000a81548160ff0219169083151502179055505b50565b6003805461247f9190613486565b600260008373ffffffffffffffffffffffffffffffffffffffff1673ffffffffffffffffffffffffffffffffffffffff168152602001908152602001600020600201541115612528576000600260008373ffffffffffffffffffffffffffffffffffffffff1673ffffffffffffffffffffffffffffffffffffffff16815260200190815260200160002060040160006101000a81548160ff021916908315150217905550612584565b6001600260008373ffffffffffffffffffffffffffffffffffffffff1673ffffffffffffffffffffffffffffffffffffffff16815260200190815260200160002060040160006101000a81548160ff0219169083151502179055505b50565b6040518060c0016040528060608152602001606081526020016000151581526020016000815260200160008152602001600073ffffffffffffffffffffffffffffffffffffffff1681525090565b5080546125e190612e37565b6000825580601f106125f35750612612565b601f01602090049060005260206000209081019061261191906126e9565b5b50565b82805461262190612e37565b90600052602060002090601f016020900481019282612643576000855561268a565b82601f1061265c57805160ff191683800117855561268a565b8280016001018555821561268a579182015b8281111561268957825182559160200191906001019061266e565b5b50905061269791906126e9565b5090565b6040518060c0016040528060608152602001600073ffffffffffffffffffffffffffffffffffffffff1681526020016000815260200160008152602001600015158152602001606081525090565b5b808211156127025760008160009055506001016126ea565b5090565b6000604051905090565b600080fd5b600080fd5b600080fd5b600080fd5b6000601f19601f8301169050919050565b7f4e487b7100000000000000000000000000000000000000000000000000000000600052604160045260246000fd5b61276d82612724565b810181811067ffffffffffffffff8211171561278c5761278b612735565b5b80604052505050565b600061279f612706565b90506127ab8282612764565b919050565b600067ffffffffffffffff8211156127cb576127ca612735565b5b6127d482612724565b9050602081019050919050565b82818337600083830152505050565b60006128036127fe846127b0565b612795565b90508281526020810184848401111561281f5761281e61271f565b5b61282a8482856127e1565b509392505050565b600082601f8301126128475761284661271a565b5b81356128578482602086016127f0565b91505092915050565b60006020828403121561287657612875612710565b5b600082013567ffffffffffffffff81111561289457612893612715565b5b6128a084828501612832565b91505092915050565b600081519050919050565b600082825260208201905092915050565b60005b838110156128e35780820151818401526020810190506128c8565b838111156128f2576000848401525b50505050565b6000612903826128a9565b61290d81856128b4565b935061291d8185602086016128c5565b61292681612724565b840191505092915050565b60008115159050919050565b61294681612931565b82525050565b6000819050919050565b61295f8161294c565b82525050565b600073ffffffffffffffffffffffffffffffffffffffff82169050919050565b600061299082612965565b9050919050565b6129a081612985565b82525050565b600060c08301600083015184820360008601526129c382826128f8565b915050602083015184820360208601526129dd82826128f8565b91505060408301516129f2604086018261293d565b506060830151612a056060860182612956565b506080830151612a186080860182612956565b5060a0830151612a2b60a0860182612997565b508091505092915050565b60006020820190508181036000830152612a5081846129a6565b905092915050565b612a6181612985565b8114612a6c57600080fd5b50565b600081359050612a7e81612a58565b92915050565b612a8d81612931565b8114612a9857600080fd5b50565b600081359050612aaa81612a84565b92915050565b60008060408385031215612ac757612ac6612710565b5b6000612ad585828601612a6f565b9250506020612ae685828601612a9b565b9150509250929050565b60008060408385031215612b0757612b06612710565b5b600083013567ffffffffffffffff811115612b2557612b24612715565b5b612b3185828601612832565b925050602083013567ffffffffffffffff811115612b5257612b51612715565b5b612b5e85828601612832565b9150509250929050565b600082825260208201905092915050565b6000612b84826128a9565b612b8e8185612b68565b9350612b9e8185602086016128c5565b612ba781612724565b840191505092915050565b612bbb81612985565b82525050565b60006060820190508181036000830152612bdb8186612b79565b90508181036020830152612bef8185612b79565b9050612bfe6040830184612bb2565b949350505050565b600060208284031215612c1c57612c1b612710565b5b6000612c2a84828501612a6f565b91505092915050565b600060c0830160008301518482036000860152612c5082826128f8565b9150506020830151612c656020860182612997565b506040830151612c786040860182612956565b506060830151612c8b6060860182612956565b506080830151612c9e608086018261293d565b5060a083015184820360a0860152612cb682826128f8565b9150508091505092915050565b60006020820190508181036000830152612cdd8184612c33565b905092915050565b612cee8161294c565b82525050565b6000602082019050612d096000830184612ce5565b92915050565b600080600060608486031215612d2857612d27612710565b5b600084013567ffffffffffffffff811115612d4657612d45612715565b5b612d5286828701612832565b9350506020612d6386828701612a6f565b925050604084013567ffffffffffffffff811115612d8457612d83612715565b5b612d9086828701612832565b9150509250925092565b6000602082019050612daf6000830184612bb2565b92915050565b600081905092915050565b6000612dcb826128a9565b612dd58185612db5565b9350612de58185602086016128c5565b80840191505092915050565b6000612dfd8284612dc0565b915081905092915050565b7f4e487b7100000000000000000000000000000000000000000000000000000000600052602260045260246000fd5b60006002820490506001821680612e4f57607f821691505b602082108103612e6257612e61612e08565b5b50919050565b7f437573746f6d6572206973206e6f742070726573656e7420696e20746865206460008201527f6174616261736500000000000000000000000000000000000000000000000000602082015250565b6000612ec4602783612b68565b9150612ecf82612e68565b604082019050919050565b60006020820190508181036000830152612ef381612eb7565b9050919050565b7f42616e6b206e6f7420616464656420696e20746865206e6574776f726b20746f60008201527f20706572666f726d2074686973206f7065726174696f6e000000000000000000602082015250565b6000612f56603783612b68565b9150612f6182612efa565b604082019050919050565b60006020820190508181036000830152612f8581612f49565b9050919050565b7f437573746f6d6572206973206e6f742070726573656e7420696e20746865206b60008201527f79632072657175657374206c6973740000000000000000000000000000000000602082015250565b6000612fe8602f83612b68565b9150612ff382612f8c565b604082019050919050565b6000602082019050818103600083015261301781612fdb565b9050919050565b7f4f6e6c792041646d696e2063616e20706572666f726d2074686973206f70657260008201527f6174696f6e000000000000000000000000000000000000000000000000000000602082015250565b600061307a602583612b68565b91506130858261301e565b604082019050919050565b600060208201905081810360008301526130a98161306d565b9050919050565b7f42616e6b20616c726561647920616464656420696e20746865206e6574776f7260008201527f6b00000000000000000000000000000000000000000000000000000000000000602082015250565b600061310c602183612b68565b9150613117826130b0565b604082019050919050565b6000602082019050818103600083015261313b816130ff565b9050919050565b7f437573746f6d657220697320616c72656164792070726573656e742c20706c6560008201527f6173652063616c6c206d6f64696679437573746f6d657220746f20656469742060208201527f74686520637573746f6d65722064617461000000000000000000000000000000604082015250565b60006131c4605183612b68565b91506131cf82613142565b606082019050919050565b600060208201905081810360008301526131f3816131b7565b9050919050565b7f42616e6b20616c726561647920766f74656420666f722074686973206375737460008201527f6f6d657200000000000000000000000000000000000000000000000000000000602082015250565b6000613256602483612b68565b9150613261826131fa565b604082019050919050565b6000602082019050818103600083015261328581613249565b9050919050565b7f42616e6b206973206e6f7420616c6c6f77656420746f20766f74650000000000600082015250565b60006132c2601b83612b68565b91506132cd8261328c565b602082019050919050565b600060208201905081810360008301526132f1816132b5565b9050919050565b7f4e487b7100000000000000000000000000000000000000000000000000000000600052601160045260246000fd5b60006133328261294c565b91507fffffffffffffffffffffffffffffffffffffffffffffffffffffffffffffffff8203613364576133636132f8565b5b600182019050919050565b600061337a8261294c565b91506133858361294c565b9250827fffffffffffffffffffffffffffffffffffffffffffffffffffffffffffffffff038211156133ba576133b96132f8565b5b828201905092915050565b7f437573746f6d657220616c72656164792070726573656e7420696e207468652060008201527f6b79632072657175657374206c69737400000000000000000000000000000000602082015250565b6000613421603083612b68565b915061342c826133c5565b604082019050919050565b6000602082019050818103600083015261345081613414565b9050919050565b7f4e487b7100000000000000000000000000000000000000000000000000000000600052601260045260246000fd5b60006134918261294c565b915061349c8361294c565b9250826134ac576134ab613457565b5b82820490509291505056fea26469706673582212205a1f293db8ec79d7f58a9176a6be4b1f2109bec494dbd6776db96861dc8ba5c464736f6c634300080d0033",
  "immutableReferences": {},
  "source": "//SPDX-License-Identifier: GPL - 3.0\npragma solidity >=0.7.0 <0.9.0;\n\ncontract Kyc {\n    struct Customer {\n        string name;\n        string data;\n        bool kycStatus;\n        uint256 upVotes;\n        uint256 downVotes;\n        address kycValidatedBank;\n    }\n\n    struct KYCRequest {\n        string customername;\n        string customerdata;\n        address kycRequestedBank;\n    }\n\n    struct Bank {\n        string name;\n        address ethAddress;\n        uint256 complaintReported;\n        uint256 kycCount;\n        bool isAllowedToVote;\n        string regNumber;\n    }\n\n    mapping(string => KYCRequest) public kycRequestList;\n    mapping(string => Customer) customerList;\n    mapping(address => Bank) bankList;\n    uint256 totalNumberOfBanks;\n    address public admin;\n    mapping(string => mapping(address => bool)) bankCustomerVote;\n\n    constructor() {\n        admin = msg.sender;\n        totalNumberOfBanks = 0;\n        Bank memory bank = Bank({\n            name: \"Admin\",\n            ethAddress: admin,\n            complaintReported: 0,\n            kycCount: 0,\n            isAllowedToVote: true,\n            regNumber: \"0\"\n        });\n\n        bankList[admin] = bank;\n    }\n\n    /* This modifier is to validate whether customer present when we add first time */\n\n    modifier validateCustomer(string memory _name) {\n        require(\n            customerList[_name].kycValidatedBank == address(0),\n            \"Customer is already present, please call modifyCustomer to edit the customer data\"\n        );\n\n        _;\n    }\n\n    /* This modifier is to validate whether Kyc request for customer is present  */\n    modifier validateCustomerKycRequest(string memory _name) {\n        require(\n            kycRequestList[_name].kycRequestedBank != address(0),\n            \"Customer is not present in the kyc request list\"\n        );\n\n        _;\n    }\n\n    /* This modifier is to validate whether KYC request for specifit customer is present  */\n    modifier validateKycRequestList(string memory _name) {\n        require(\n            kycRequestList[_name].kycRequestedBank == address(0),\n            \"Customer already present in the kyc request list\"\n        );\n\n        _;\n    }\n\n    /* This modifier is to validate whether customer exist in the system */\n\n    modifier validateCustomerExist(string memory _name) {\n        require(\n            bytes(customerList[_name].name).length > 0,\n            \"Customer is not present in the database\"\n        );\n\n        _;\n    }\n\n    /* This modifier is to validate whether bank exist in the system */\n\n    modifier validateBankExist(address _bankAddress) {\n        require(\n            bankList[_bankAddress].ethAddress != address(0),\n            \"Bank not added in the network to perform this operation\"\n        );\n\n        _;\n    }\n\n    /* This modifier is to validate whether bank already added to the network */\n\n    modifier validateBankAlreadyAdded(address _bankAddress) {\n        require(\n            bankList[_bankAddress].ethAddress == address(0),\n            \"Bank already added in the network\"\n        );\n\n        _;\n    }\n\n    /* This modifier is to validate admin status */\n\n    modifier validateAdminStatus(address _bankAddress) {\n        require(_bankAddress == admin, \"Only Admin can perform this operation\");\n\n        _;\n    }\n\n    /* This modifier is to validate voting capability for bank for individiual customer */\n    modifier validateBankCustomerVoteStatus(\n        address _bankAddress,\n        string memory _customerName\n    ) {\n        require(\n            bankCustomerVote[_customerName][_bankAddress] == false,\n            \"Bank already voted for this customer\"\n        );\n        require(\n            bankList[_bankAddress].isAllowedToVote == true,\n            \"Bank is not allowed to vote\"\n        );\n\n        _;\n    }\n\n    /* Desc:This function is to add customer for KYC Verification\n       @param:customer name\n       @param:hash of customer data \n     */\n\n    function addKYCRequest(\n        string memory _customerName,\n        string memory _customerData\n    )\n        public\n        validateBankExist(msg.sender)\n        validateKycRequestList(_customerName)\n    {\n        KYCRequest memory customerKYC = KYCRequest({\n            customername: _customerName,\n            customerdata: _customerData,\n            kycRequestedBank: msg.sender\n        });\n\n        kycRequestList[_customerName] = customerKYC;\n    }\n\n    /*  Desc:This function is to add customer in customer list after kyc verification\n        @param:customer name\n        @param:hash of customer data \n     */\n\n    function addCustomer(\n        string memory _customerName,\n        string memory _customerData\n    ) public validateCustomer(_customerName) validateBankExist(msg.sender) {\n        Customer memory customer = Customer({\n            name: _customerName,\n            data: _customerData,\n            kycValidatedBank: msg.sender,\n            upVotes: 0,\n            downVotes: 0,\n            kycStatus: true\n        });\n\n        bankCustomerVote[_customerName][msg.sender] = false;\n\n        customerList[_customerName] = customer;\n    }\n\n    /*  Desc:This function is to remove customer for kyc request list\n        @param:customer name\n        @param:hash of customer data \n     */\n\n    function removeKYCRequest(string memory _customerName)\n        public\n        validateCustomerKycRequest(_customerName)\n        validateBankExist(msg.sender)\n    {\n        delete kycRequestList[_customerName];\n    }\n\n    /*  Desc:This function is to view customer details\n         @param:customer name\n         @return: customer details\n     */\n\n    function viewCustomer(string memory _name)\n        public\n        view\n        validateCustomerExist(_name)\n        validateBankExist(msg.sender)\n        returns (Customer memory)\n    {\n        return customerList[_name];\n    }\n\n    /*  Desc:This function is to add upVote for customer \n        @param:customer name   \n     */\n\n    function upVoteCustomer(string memory _customerName)\n        public\n        validateCustomerExist(_customerName)\n        validateBankExist(msg.sender)\n        validateBankCustomerVoteStatus(msg.sender, _customerName)\n    {\n        customerList[_customerName].upVotes++;\n        validateCustomerStatus(_customerName);\n        bankCustomerVote[_customerName][msg.sender] = true;\n    }\n\n    /*   Desc:This function is to add downVote for customer \n         @param:customer name  \n     */\n\n    function downVoteCustomer(string memory _customerName)\n        public\n        validateCustomerExist(_customerName)\n        validateBankExist(msg.sender)\n        validateBankCustomerVoteStatus(msg.sender, _customerName)\n    {\n        customerList[_customerName].downVotes++;\n        validateCustomerStatus(_customerName);\n        bankCustomerVote[_customerName][msg.sender] = true;\n    }\n\n    /*    Desc:This function is to check whether upvote count is more the downvote\n          @param:customer name \n       */\n\n    function validateCustomerStatus(string memory _customerName) internal {\n        if (\n            customerList[_customerName].upVotes >\n            customerList[_customerName].downVotes &&\n            customerList[_customerName].downVotes < totalNumberOfBanks / 3\n        ) {\n            customerList[_customerName].kycStatus = true;\n        } else {\n            customerList[_customerName].kycStatus = false;\n        }\n    }\n\n    /*   Desc:This function is to modify customer details\n         @param:customer name\n         \n     */\n\n    function modifyCustomerDetail(string memory _customerName)\n        public\n        validateBankExist(msg.sender)\n        validateCustomerExist(_customerName)\n    {\n        delete kycRequestList[_customerName];\n        customerList[_customerName].upVotes = 0;\n        customerList[_customerName].downVotes = 0;\n    }\n\n    /*   Desc:This function is to get of complaint count for a bank\n         @param: bank address\n         @return:number of complaint bank received \n     */\n\n    function getBankComplaint(address _bank)\n        public\n        view\n        validateBankExist(_bank)\n        returns (uint256)\n    {\n        return bankList[_bank].complaintReported;\n    }\n\n    /*   Desc:This function is to view bank details\n         @param: bank address\n         @return: bank details \n     */\n\n    function viewBankDetails(address _bank)\n        public\n        view\n        validateBankExist(_bank)\n        returns (Bank memory)\n    {\n        return bankList[_bank];\n    }\n\n    /*   Desc:This function is to raised compalin against bank\n         @param: bank address\n         @return: bank details \n     */\n\n    function reportBank(address _bank) public validateBankExist(_bank) {\n        bankList[_bank].complaintReported += 1;\n        validateBankComplaintStatus(_bank);\n    }\n\n    /*   Desc:This function is to validate bank complaint status\n         @param: bank address\n         \n     */\n    function validateBankComplaintStatus(address _bank) internal {\n        if (bankList[_bank].complaintReported > (totalNumberOfBanks / 3)) {\n            bankList[_bank].isAllowedToVote = false;\n        } else {\n            bankList[_bank].isAllowedToVote = true;\n        }\n    }\n\n    /*    Desc:This function is for Admin to add a bank\n          @param: bank name\n          @param: bank address\n          @param: bank registration number \n     */\n\n    function addBank(\n        string memory _bankName,\n        address _bankAddress,\n        string memory _bankRegistration\n    )\n        public\n        validateAdminStatus(msg.sender)\n        validateBankAlreadyAdded(_bankAddress)\n    {\n        Bank memory bank = Bank({\n            name: _bankName,\n            ethAddress: _bankAddress,\n            complaintReported: 0,\n            kycCount: 0,\n            isAllowedToVote: true,\n            regNumber: _bankRegistration\n        });\n\n        bankList[_bankAddress] = bank;\n        totalNumberOfBanks = totalNumberOfBanks + 1;\n    }\n\n    /*    Desc: This function is for Admin to modify bank voting status\n          @param: bank address\n          @param: boolean value true/false \n     */\n\n    function modifyBank(address _bankAddress, bool _isAllowedToVote)\n        public\n        validateAdminStatus(msg.sender)\n        validateBankAlreadyAdded(_bankAddress)\n    {\n        bankList[_bankAddress].isAllowedToVote = _isAllowedToVote;\n    }\n\n    /*    Desc: This function is for Admin to remove bank from network \n          @param: bank address\n         \n     */\n\n    function removerBank(address _bankAddress)\n        public\n        validateAdminStatus(msg.sender)\n        validateBankAlreadyAdded(_bankAddress)\n    {\n        delete bankList[_bankAddress];\n    }\n}\n",
  "sourcePath": "/Users/gautamkolluru/upgrade/Phase-3/KYC-SC/contracts/Kyc.sol",
  "compiler": {
    "name": "solc",
    "version": "0.8.13+commit.abaa5c0e.Emscripten.clang"
  },
  "schemaVersion": "3.4.7",
  "updatedAt": "2022-05-31T18:35:52.450Z",
  "networkType": "ethereum",
  "devdoc": {
    "kind": "dev",
    "methods": {},
    "version": 1
  },
  "userdoc": {
    "kind": "user",
    "methods": {},
    "version": 1
  }
}